:020000040800F2
:10000000C00C002045010008A106000857060008A2
:100010009D060008110200084B0D000800000000BA
:100020000000000000000000000000004D08000873
:1000300015020008000000001507000889090008E3
:100040005F0100085F0100085F0100085F01000810
:100050005F0100085F0100085F0100085F01000800
:100060005F0100085F0100085F0100085F010008F0
:100070005F0100085F0100085F0100085F010008E0
:100080005F0100085F0100085F0100085F010008D0
:100090005F0100085F0100085F0100085F010008C0
:1000A0005F0100085F0100085F0100085F010008B0
:1000B0005F0100085F0100085F0100085F010008A0
:1000C0005F0100085F0100085F0100085F01000890
:1000D0005F010008A90A00085F0100085F0100082D
:1000E0005F0100085F0100085F0100085F01000870
:1000F0005F0100085F0100085F0100085F01000860
:100100005F0100085F0100085F0100085F0100084F
:100110005F0100085F0100085F0100085F0100083F
:100120005F0100085F0100085F0100085F0100082F
:10013000DFF80CD000F05AF800480047A90F00087B
:10014000C00C00200648804706480047FEE7FEE74F
:10015000FEE7FEE7FEE7FEE7FEE7FEE7FEE7FEE777
:100160008D09000831010008D2B201E000F8012B2E
:10017000491EFBD270470022F6E710B513460A4627
:1001800004461946FFF7F0FF204610BD30B505467E
:100190002A460B4612F8010B13F8014B08B1A04296
:1001A000F8D01CB1002802D06D1CF1E7284630BD04
:1001B000421C10F8011B0029FBD1801A704730B592
:1001C0000B46014600202022012409E021FA02F515
:1001D0009D4205D303FA02F5491B04FA02F52844AF
:1001E000151EA2F10102F1DC30BD0000064C074DE6
:1001F00006E0E06840F0010394E8070098471034F7
:10020000AC42F6D3FFF798FFF41000081411000871
:1002100000BFFEE77047000010B596210348FFF7C6
:10022000AAFF00200249086010BD00002408002039
:100230002000002010B5A2B0C8226FA16FA000F06E
:100240003DF9FFF7E9FF32240BE0C8226AA16CA058
:1002500000F034F900B906E0601E04B2C82000F0D6
:100260007DFE002CF1DC00BF002C01DC22B010BDB3
:100270004FF4FA7000F072FEFFF7CEFF32240BE06D
:10028000C8225DA161A000F019F900B906E0601E66
:1002900004B2642000F062FE002CF1DC00BF002CF0
:1002A00000DCE3E74FF4FA7000F058FEFFF7B4FF0C
:1002B00032240BE0C82250A158A000F0FFF800B98A
:1002C00006E0601E04B2642000F048FE002CF1DC61
:1002D00000BF002C00DCC9E74FF4FA7000F03EFECE
:1002E000FFF79AFF1424802102A8FFF744FF50A3D0
:1002F00052A254A102A800F02BFD02E0C82000F099
:100300002DFE4FF4FA723CA102A800F0D7F80028A5
:10031000F4D14FF4FA7000F021FEFFF77DFF962430
:100320000BE0C82234A14DA000F0C8F800B906E0E7
:10033000601E04B2642000F011FE002CF1DC00BF4E
:10034000002C00DC92E74FF4FA7000F007FEFFF794
:1003500063FF32240BE0C82227A144A000F0AEF8CE
:1003600000B906E0601E04B2642000F0F7FD002C26
:10037000F1DC00BF002C00DC78E74FF4FA7000F0ED
:10038000EDFDFFF749FF802102A8FFF7F4FE4CF6D0
:100390002E303AA33DA23EA1009002A800F0D8FC66
:1003A00002E0C82000F0DAFD4FF4FA7212A102A8B0
:1003B00000F084F80028F4D14FF4FA7000F0CEFD7C
:1003C000FFF72AFF4FF47A740BE0C8220AA137A086
:1003D00000F074F800B906E0601E04B2C82000F016
:1003E000BDFD002CF1DC00BF002C00DC3EE732201C
:1003F00000F0B4FD00BF39E74F4B00002B2B2B0062
:1004000041542B5253540D0A0000000041542B4319
:10041000574D4F44453D310D0A00000041542B43D8
:10042000574155544F434F4E4E3D300D0A0000008A
:10043000786D77363636363838383800596943653E
:100440006E67000041542B43574A41503D222573AB
:10045000222C222573220D0A0000000041542B4358
:1004600049504D55583D300D0A00000041542B4372
:1004700049504D4F44453D310D0A00003139322E6F
:100480003136382E302E31343000000054435000C5
:1004900041542B43495053544152543D2225732219
:1004A0002C222573222C25640D0A000041542B4375
:1004B000495053454E440D0A000000002DE9F0411B
:1004C00005460E4614462846FFF772FEC7B2394667
:1004D000284600F0E7FD0FE000F018F848B9314673
:1004E0000948FFF753FE20B1FFF796FE0020BDE854
:1004F000F081012000F032FD201EA4F101018CB238
:10050000EAD10120F3E70000240800200A4800682F
:1005100008B90120704708480068084909888842DE
:1005200003D1002004490860F4E703480088034928
:1005300008800120EEE700002000002014000020C9
:100540002DE9F0410246002500260020002300246A
:10055000002791F803C00CF00F0591F803C00CF0D0
:10056000100CBCF1000F03D091F802C04CEA050555
:1005700091F800C0BCF1000F31D0146800202BE0CE
:100580004FF0010C0CFA00F3B1F800C00CEA0306BE
:100590009E4220D183004FF00F0C0CFA03F7BC43AE
:1005A00005FA03FC4CEA040491F803C0BCF1280FDF
:1005B00006D14FF0010C0CFA00FCC2F814C00AE09E
:1005C00091F803C0BCF1480F05D14FF0010C0CFAB3
:1005D00000FCC2F810C0401C0828D1D31460B1F848
:1005E00000C0BCF1FF0F34DD546800202EE000F1A4
:1005F000080C4FF0010808FA0CF3B1F800C00CEA3F
:1006000003069E4221D183004FF00F0C0CFA03F732
:10061000BC4305FA03FC4CEA040491F803C0BCF1A6
:10062000280F05D100F1080C08FA0CF8C2F8148064
:1006300091F803C0BCF1480F07D100F1080C4FF04E
:10064000010808FA0CF8C2F81080401C0828CED324
:100650005460BDE8F08100BFFEE70000014908607A
:10066000704700009881214208B50121082000F060
:1006700063F810208DF803004020ADF8000003203F
:100680008DF8020069460348FFF75AFF002002492F
:10069000086008BD000C01409881214200BFFEE7C0
:1006A0007047000070B5002100230F22C47804B306
:1006B000154C246804F4E064C4F5E064210AC1F137
:1006C0000403CA40447804FA03F1847814402143B7
:1006D00009010E4C0678A155047804F01F05012489
:1006E000AC4005786D11AD0005F1E025C5F800417D
:1006F00009E0047804F01F050124AC40044D06789D
:10070000761145F8264070BD0CED00E000E400E0F5
:1007100080E100E07047000029B1064A12690243F7
:10072000044B1A6104E0034A12698243014B1A61C7
:10073000704700000010024029B1064A9269024346
:10074000044B9A6104E0034A92698243014B9A6127
:10075000704700000010024029B1064AD2680243E7
:10076000044BDA6004E0034AD2688243014BDA604A
:10077000704700000010024030B500210022002424
:1007800000232D4D6D6805F00C0121B1042905D021
:10079000082923D105E0294D056022E0274D056099
:1007A0001FE0254D6D6805F47012234D6D6805F44A
:1007B0008034022505EB92421CB9214D554305605A
:1007C0000BE01D4D6D6805F400351DB11C4D554302
:1007D000056002E0194D5543056002E0174D0560C4
:1007E00000BF00BF144D6D6805F0F0010909154DFB
:1007F0006B5C0568DD4045600F4D6D6805F4E06198
:10080000090A104D6B5C4568DD4085600A4D6D68D6
:1008100005F46051C90A0B4D6B5C4568DD40C5604D
:10082000054D6D6805F44041890B074D6B5CC5684B
:10083000B5FBF3F5056130BD0010024000127A00EF
:1008400000093D000000002010000020704700005B
:1008500010B56FF0040000F083F809200449086027
:10086000084600684FF47A7148430249086010BD99
:10087000180000201C00002010B500F001F810BD89
:100880000CB50020019000903348006840F480309F
:100890003149086000BF3048006800F40030009023
:1008A0000198401C0190009818B90198B0F5A06F0C
:1008B000F1D12948006800F4003010B10120009007
:1008C00001E0002000900098012843D123480068EF
:1008D00040F01000214908600846006820F0070039
:1008E00008600846006840F0020008601A48406846
:1008F000194948600846406848600846406840F426
:10090000806048600846406820F47C1048600846D3
:10091000406840F4E81048600846006840F0807085
:10092000086000BF0C48006800F000700028F9D093
:100930000948406820F003000749486008464068BD
:1009400040F00200486000BF0348406800F00C001F
:100950000828F9D10CBD0000001002400020024020
:10096000042808D14FF0E021096941F004014FF05B
:10097000E022116107E04FF0E021096921F0040154
:100980004FF0E022116170477047000010B5134826
:10099000006840F0010011490860084640681049AD
:1009A00008400E494860084600680E4908400B4957
:1009B00008600846006820F4802008600846406807
:1009C00020F4FE0048604FF41F008860FFF754FFDA
:1009D0004FF000600449086010BD000000100240A4
:1009E0000000FFF8FFFFF6FE08ED00E000B587B05D
:1009F000012144F20500FFF79FFE294800F096F818
:100A00004FF40070ADF8180003208DF81A0018207C
:100A10008DF81B0006A92348FFF792FD4FF4806074
:100A2000ADF8180004208DF81B0006A91D48FFF73B
:100A300087FD25208DF8040000208DF805008DF835
:100A4000060001208DF8070001A8FFF72BFE4FF4E8
:100A5000E13002900020ADF80C00ADF80E00ADF8CA
:100A60001000ADF814000C20ADF8120002A90C48DB
:100A700000F0FAF802A90A4800F0F6F8012240F264
:100A80002551074800F0CAF8002240F224410448EA
:100A900000F0C4F80121024800F03BF807B000BDA7
:100AA000003801400008014010B540F225510E48C1
:100AB00000F08AF890B10D480068962802D3002013
:100AC0000A490860084800F03BF9C1B207480268CB
:100AD0000068401C054B18600548815440F22551C0
:100AE000014800F007F810BD003801402000002048
:100AF0002408002010B50022002340F66A14A14209
:100B000000D100BF0A1201249440A3B2DC43048048
:100B100010BD21B1828942F40052828104E08289B1
:100B20004DF6FF731A4082817047000010B50446ED
:100B30002048844209D101218803FFF70DFE0021DE
:100B40004FF48040FFF708FE32E01B48844209D191
:100B500001214804FFF7E0FD00214FF40030FFF7CA
:100B6000DBFD25E01548844209D101218804FFF707
:100B7000D3FD00214FF48020FFF7CEFD18E0104890
:100B8000844209D10121C804FFF7C6FD00214FF4BA
:100B90000020FFF7C1FD0BE00A48844208D1012183
:100BA0000805FFF7B9FD00214FF48010FFF7B4FDF1
:100BB00010BD0000003801400044004000480040E3
:100BC000004C00400050004070B502460024002355
:100BD0000025002040F66A16B14200D100BFC1F3E3
:100BE000421501F01F03012606FA03F3012D02D17D
:100BF0009689334006E0022D02D1168A334001E087
:100C0000968A33400C12012606FA04F41688344002
:100C100013B10CB1012000E0002070BDF0B5034617
:100C2000002400260025002040F66A17B94200D1B2
:100C300000BF1846C1F3421401F01F06012707FA4E
:100C400006F5012C01D10C3004E0022C01D110304A
:100C500000E014301AB107682F43076002E007680C
:100C6000AF430760F0BD00002DE9F04786B00546B0
:100C70000E460024A24600BFA1460027B08900B15D
:100C800000BF2F462C8A4CF6FF700440F0880443C6
:100C90002C82AC894EF6F3100440B08831890843A9
:100CA000718908430443AC81AC8A4FF6FF4004408D
:100CB000B0890443AC8201A8FFF75EFD1F4887425C
:100CC00002D1DDF810A001E0DDF80CA0A88900F445
:100CD000004040B10AEBCA0000EB0A10316849003D
:100CE000B0FBF1F807E00AEBCA0000EB0A1031682C
:100CF0008900B0FBF1F86420B8FBF0F00401200992
:100D0000642101FB1089A88900F4004040B1322021
:100D100000EBC900B0FBF1F000F00700044308E06D
:100D2000322000EB09106421B0FBF1F000F00F005D
:100D300004432C8106B0BDE8F08700000038014074
:100D400001468888C0F30800704700BFFEE7000036
:100D50000FB4084B10B504A902AA039800F01CF8C0
:100D6000044602A9002000F0F3F8204610BC5DF80C
:100D700014FB0000510F000802E008C8121F08C150
:100D8000002AFAD170477047002001E001C1121F0C
:100D9000002AFBD1704700002DE9FF4F8BB09A4627
:100DA0000F460546002606E025280BD052460D9931
:100DB00090476D1C761C28780028F5D10FB030467E
:100DC000BDE8F08F0024A0460122604900E0044302
:100DD00015F8013F203B02FA03F00842F7D12878CA
:100DE0002E2817D115F8010F44F004042A280ED03C
:100DF0006FF02F022878A0F1300109290AD808EBFA
:100E0000880102EB410100EB01086D1CF2E757F885
:100E1000048B6D1C287869283ED006DC0028CDD0D4
:100E200063280BD0642804D136E0732810D07528CD
:100E30004BD052460D999047761C85E017F8040B6D
:100E40008DF8000000208DF80100E946012003E044
:100E500057F8049B4FF0FF3061074FF0000401D4B6
:100E60000AE0641C44450DDA8442FADB19F80410E8
:100E70000029F6D106E0641C8442FCDB19F804105A
:100E80000029F8D1264404E019F8010B52460D99C7
:100E90009047641EF8D257E001CF4FF00A0B0028AC
:100EA00002DA40422D2102E0210504D52B218DF8E4
:100EB0002410012103E0E10705D02021F7E70DF11F
:100EC000200908910CE00021F9E701CF4FF00A0B4F
:100ED000F9E75946FFF773F901F1300209F8012DDE
:100EE0000028F6D1ADEB090000F1200B600701D41A
:100EF0004FF00108D84502DDA8EB0B0000E0002010
:100F00008046002406E009A85246005D0D999047EE
:100F1000641C761C08988442F5DB04E030205246BD
:100F20000D999047761CB8F10001A8F10108F5DC95
:100F300005E019F8010B52460D999047761CBBF15C
:100F40000001ABF1010BF4DC6D1C34E70928010052
:100F50000A68531C0B601070704700000146114A6C
:100F600012684A434FF0E0235A6100229A611A4600
:100F7000126942F001021A61002000BF4FF0E02226
:100F8000106900F001021AB100F48032002AF5D095
:100F900000224FF0E0239A611A46126922F0010202
:100FA0001A6170471C000020FFF752FCFFF71EFD7E
:100FB000FFF75AFBFFF73EF900252DE04FF40061E3
:100FC0001648FFF7D8F816A219A11448FFF7C0FE7B
:100FD000124800F049F83220FFF7C0FF002418E063
:100FE000FFF794FA88B91BA11C48FFF7CFF810B19E
:100FF0000120FFF733FB1AA11848FFF7C7F810B11B
:101000000020FFF72BFBFFF707F90520FFF7A6FFEE
:10101000641CBE2CE4DB6D1CD0E700002400002023
:101020003139322E3136382E302E31343000000036
:10103000474554202F7465737420485454502F3101
:101040002E310D0A486F73743A2025730D0A0D0A6C
:10105000000000005355434345535300240800202B
:101060004552524F520000000146002211E000BFDD
:101070000B48008800F040000028F9D00878084BA1
:101080001B1D1880491C501C82B2B2F57F7F00DD09
:1010900002E008780028EAD100BF00207047000075
:1010A00000380140FF2912D00BE000BF104A12881F
:1010B00002F04002002AF9D002780D4B1B1D1A8065
:1010C000401C0A1EA1F10103D9B2EED10FE00BE0E2
:1010D00000BF074A128802F04002002AF9D00278C5
:1010E000034B1B1D1A80401C0278002AF0D1704768
:1010F0000038014014110008000000202400000006
:10110000780D000838110008240000209C0C000015
:10111000880D00080000000001020304010203041E
:10112000060708090204060800000000000000008D
:081130000000000000000000B7
:0400000508000131BD
:00000001FF
